:020000040800F2
:1000000000000120050500084B0500084D0500080B
:100010004F050008510500085305000800000000C6
:10002000000000000000000000000000550500086E
:100030005705000800000000590500085B0500088E
:100040005F050008610500086305000865050008F4
:1000500067050008690500086B0500086D050008C4
:100060006F05000871050008730500087505000894
:1000700077050008790500087B0500087D05000864
:100080007F05000881050008830500088505000834
:1000900087050008890500088B0500088D05000804
:1000A0008F050008910500089305000895050008D4
:1000B00097050008990500089B0500089D050008A4
:1000C0009F050008A1050008A3050008A505000874
:1000D000A7050008A9050008AB050008AD05000844
:1000E000AF050008B1050008B3050008044B05483A
:1000F0001B1A062B02D9044B03B11847704700BFE7
:100100007F0000207C000020000000000549064818
:10011000091A891001EBD171491002D0034B03B1C8
:10012000184770477C0000207C0000200000000081
:1001300010B5064C237843B9FFF7D8FF044B13B131
:100140000448AFF300800123237010BD7C00002021
:10015000000000002408000808B5084B1BB108483F
:100160000849AFF300800848036813B9BDE80840A8
:10017000CCE7064B002BF9D09847F7E700000000CA
:1001800024080008800000207C00002000000000FF
:10019000134B002B08BF114B9D46A3F5803A00215D
:1001A0008B460F461148124A121A00F05BFA0D4BAB
:1001B000002B00D098470C4B002B00D09847002014
:1001C000002104000D000B4800F0F8F900F024FABB
:1001D0002000290000F02AF800F0F6F900000800DD
:1001E0000000012000000000000000007C00002052
:1001F00028010020F105000810B5044686B001A8CA
:1002000000F03CF8029B0848A0FB0330400B00FBC9
:1002100004F00090009B2BB1009B013B0093009BDE
:10022000002BF9D106B010BD5917B7D100B5102079
:1002300083B0012100F070F8042302A921F8043DE5
:10024000032210230C488DF806208DF8073000F0AB
:100250006FF804210122084800F0CCF840F2DC508D
:10026000FFF7CAFF04480421002200F0C3F84FF44E
:10027000FA70FFF7C1FFECE70010014030B4214AEB
:10028000536803F00C03042B06D0082B25D01BB1B8
:100290001D4A1346026001E01B4B0360194A1B4CC8
:1002A00051681B4DC1F30311615CCB404360516841
:1002B000C1F30221615C23FA01F181605168C1F34D
:1002C000C221615CCB40C3605268C2F38132AA5C38
:1002D00030BCB3FBF2F30361704753685168C3F35A
:1002E0008343C90303F1020307D55268920304D480
:1002F000054A02FB03F30360D0E7064A02FB03F35F
:100300000360CBE70010024000127A0004000020D6
:100310000000002000093D00044A936919B923EA4E
:1003200000009061704718439061704700100240D0
:10033000CB782DE9F04103F00F07DB0644BF8B7843
:100340001F430B8813F0FF0F26D0056800220126FB
:100350004FF00F0C03E00132082A1BD00B8806FA7D
:1003600002F42340A342F6D1940091F803E00CFA82
:1003700004F825EA080507FA04F4BEF1280F45EA57
:10038000040535D0BEF1480F02F1010208BF036138
:10039000082AE3D105600B88FF2B27D94568002484
:1003A00001264FF00F0C03E00134082C1DD00B8800
:1003B00004F1080206FA02F213409342F4D1CA781B
:1003C0004FEA840E282A04BF4361CA780CFA0EF85B
:1003D000482A04F1010425EA080507FA0EFE08BFC1
:1003E0000361082C45EA0E05E1D14560BDE8F081C6
:1003F0004361B0E70AB9416170470161704700BFCE
:1004000030B43C4B3C49186882B040F001001860A1
:100410005D6800202940596019684FF41F0421F0DD
:10042000847121F48031196019681A4621F4802101
:100430001960596821F4FE0159609C600090019098
:10044000196841F48031196003E0009BB3F5A06F97
:1004500009D0136803F400330193009B0133009328
:10046000019B002BF1D0234B1B6813F4003318BF02
:1004700001230193019B012B06D0204B4FF000621A
:100480009A6002B030BC70471D4A1A4B106819467A
:1004900040F010001060106820F003001060106839
:1004A00040F0020010605A685A605A685A605A68F0
:1004B00042F480625A605A6822F47C125A605A6888
:1004C00042F4E8125A601A6842F080721A600B68AF
:1004D000084A9B01FBD51146536823F00303536080
:1004E000536843F0020353604B6803F00C03082B7E
:1004F000FAD1C2E7001002400000FFF800ED00E072
:10050000002002400649074A074B9A42BEBF51F8F5
:10051000040B42F8040BF8E70448804704480047FE
:1005200030080008000000207C00002001040008C2
:10053000910100081F49204A002301E041F8043BD3
:100540009142FBD3FFF772FEFEE7FEE7FEE7FEE710
:10055000FEE7FEE7FEE7FEE7FEE7FEE7FEE7FEE773
:10056000FEE7FEE7FEE7FEE7FEE7FEE7FEE7FEE763
:10057000FEE7FEE7FEE7FEE7FEE7FEE7FEE7FEE753
:10058000FEE7FEE7FEE7FEE7FEE7FEE7FEE7FEE743
:10059000FEE7FEE7FEE7FEE7FEE7FEE7FEE7FEE733
:1005A000FEE7FEE7FEE7FEE7FEE7FEE7FEE7FEE723
:1005B000FEE7FEE77C000020280100200146002025
:1005C0000246034600F056B808B5074B044613B17F
:1005D000002100F0ABF8054B1868836A03B1984717
:1005E000204600F00DF900BF2D0700082008000884
:1005F00038B5074B074C1D46E41AA41024B1013C42
:1006000055F824309847F9E7BDE8384000F000B9C4
:10061000780000207C0000200E4B70B51E460E4C6A
:100620000025E41AA410A54204D056F825309847B6
:100630000135F8E700F0E6F8084B094C1E46E41ACD
:10064000A4100025A54204D056F82530984701355E
:10065000F8E770BD740000207400002074000020D2
:100660007800002003460244934202D003F8011BA5
:10067000FAE770472DE9F843294D06462C680F46E6
:10068000914698460CB9274C2C6063681F2B14DDEB
:10069000254B1BB94FF0FF30BDE8F8838C20AFF33A
:1006A000008004460028F5D02A68002302604360D9
:1006B0002860C0F888303EB929E046B3D4F88800F5
:1006C00078B9194B002BE5D04FF48470AFF300805C
:1006D0000028DFD00023C0F80031C0F80431C4F88E
:1006E00088006268012340F82290934000EB820169
:1006F000D0F80021022E42EA0302C0F80021C1F81E
:10070000808002BFD0F804211343C0F8043163682D
:1007100000205A1C0233626044F82370BDE8F8835D
:100720002401002098000020000000002DE9F74F70
:1007300080460F46304E3468002C59D06568D4F896
:10074000889005F1FF3AAD0009EB050B043525440F
:10075000BAF1000F38DB37B1B9F1000F2ED0DBF85A
:100760007C20BA422AD161682A6801398A4516BFBD
:100770000021C4F804A0296002B363680193B9F1B1
:10078000000F06D00121D9F8000101FA0AF1014257
:1007900001D190470BE0D9F80401014204D1404651
:1007A0005BF8041C904702E05BF8040C9047626819
:1007B000019B9342BED13268A242BBD10AF1FF3AFB
:1007C000ABF1040B043DC3E70C4B8BB162682368AB
:1007D0005AB953B13360B9F1000F02D04846AFF3B4
:1007E00000802046AFF30080A5E726461C46A3E71D
:1007F00003B0BDE8F08F00BF24010020000000001E
:10080000FEE700BFF8B500BFF8BC08BC9E467047C5
:10081000F8B500BFF8BC08BC9E4670474300000016
:0808200014000020000000009C
:0808280068F9FF7F01000000E8
:100830000204060800000000010203040102030490
:10084000060708090000000000000000000000008A
:100850000000000000000000000000000000000098
:10086000000000001C08000800000000000000005C
:100870000000000000000000000000000000000078
:100880000000000000000000000000000000000068
:100890000000000000000000000000000000000058
:0C08A000000000005901000831010008B0
:0400000508000000EF
:00000001FF
